:1000000080080020C9030000C5030000C5030000EC
:1000100000000000000000000000000000000000E0
:10002000000000000000000000000000C503000008
:100030000000000000000000C5030000C503000030
:10004000C5030000C503000097230000C50300009E
:10005000C5030000C5030000C503000047190000E8
:10006000C5030000C5030000C5030000D71500004C
:1000700049160000BB1600002D1700009F17000056
:10008000C5030000C5030000C5030000C503000050
:10009000C5030000C5030000C5030000C503000040
:1000A000C5030000C5030000C5030000C503000030
:1000B000C5030000C5030000C5030000C503000020
:1000C000C5030000C503000091220000C503000025
:1000D000C5030000271400003F140000C503000002
:1000E000C5030000C5030000C5030000C5030000F0
:1000F000C5030000FF2303409B0041F6004CC4F2FF
:10010000000C634480229A580120520604D44022F5
:100110001143403299500020010002000300844640
:100120008EF300887447F0B5CE46474680B587B059
:10013000029003910492059342F60023C4F2000357
:10014000986899691A6BDC69A4461F6C029E464048
:100150003E404640049B01931D004D403D404D40B4
:10016000059C54403C405440A146002100230120FE
:1001700040F20F0802E00133082B08D002009A4039
:100180001742F8D09A00444694402143F3E7604672
:10019000039B584008406346584042F60023C4F28F
:1001A00000031A7802218A431A7042F60022C4F230
:1001B0000002013153681942FCD142F60022C4F218
:1001C0000002022153681942FCD142F60023C4F216
:1001D00000039E609D614A461A63D8611A78022125
:1001E0000A431A7042F60022C4F200020131536839
:1001F0001942FCD1002007B0010002000300844630
:100200000CBC90469946F0BC02BC864681F300883F
:100210000C47000010B540F22004C2F2000423781D
:1002200063B940F20003C0F200032BB144F2200096
:10023000C0F2800000E000BF0123237010BDC04663
:1002400040F20003C0F2000310B54BB140F22401AC
:1002500044F22000C2F20001C0F2800000E000BFC2
:1002600044F22000C0F28000036803B910BD40F2E0
:100270000003C0F20003002BF8D09847F6E7C04611
:1002800010B582B00C006B46D91D08700122002009
:1002900040F62B53C0F2000398471CB16B4607335E
:1002A0001B78237002B010BD70B505000021FF203F
:1002B00040F28124C0F20004A0472900FF20A0479B
:1002C00070BD10B5002140F28123C0F200039847B1
:1002D00010BDF8B504000F001500C005C00F1E23A7
:1002E0001843002140F28126C0F20006B047E0B278
:1002F0000021B0475FB12C00ED1940F28126C0F219
:10030000000620780021B0470134AC42F9D1F8BD95
:1003100070B582B000226B46DA7140F2CC00C2F2B6
:10032000000040F20001C2F20001183242F2C5435F
:10033000C0F20003984740F2B563C0F2000398474B
:1003400040F2E833013B9BB2002BFBD16B460733F5
:100350001B789B060BD46B46DC1D40F2A925C0F22E
:10036000000520262000A84723781E42FAD040F23C
:10037000CC02C2F20002402140F2001040F2D3232E
:10038000C0F200039847BB2040F2C323C0F2000331
:100390009847FF2002B070BD10B540F67D03C0F253
:1003A0000003984743F20023C4F200030022DA66F8
:1003B0004EF20013CEF2000340F280215A50043175
:1003C0005A5010BDFEE7000010B542F24872C0F26C
:1003D000000240F20003C2F200039A4220D01A0049
:1003E00040F21803C2F200039A4219D240F21803F5
:1003F000C2F200030333244A9B1A9B0801339B007B
:10040000002240F20001C2F20001511842F248708D
:10041000C0F2000010180068086004329A42F0D15F
:1004200040F22002C2F2000240F28023C2F2000336
:100430009A4213D240F22002C2F20002D34340F2A9
:100440008021C2F200018C46634403218B430433B4
:1004500094466344002102C29342FCD140F200035F
:10046000C0F200037F2293434EF60052CEF2000208
:10047000936042F27543C0F20003984742F26F3333
:10048000C0F200039847FEE704000020F0B585B0F5
:1004900040F60003C4F20003DA6980210A43DA61FE
:1004A00041F60043C4F200034039C022995040F2A3
:1004B0003C04C2F2000441F60041C4F2002140F2C3
:1004C000EC05C2F200050023029340F21C13C2F2B5
:1004D000000301930127009700232200280040F623
:1004E000C516C0F20006B047221D102300212800C7
:1004F00040F67924C0F20004A04740F20023C6F27F
:10050000000304225A6043F20023C4F20003C4F241
:1005100000029A62C02212069A624222995CB94392
:1005200001200143C9B2995431215A5C0F24A243DE
:100530000243D2B25A5405B0F0BD40F60003C4F2F3
:100540000003DA6940F200410A43DA61704710B5EE
:1005500040F23B53C0F20003984742F60001C4F258
:10056000002140F2E400C2F2000040F62743C0F24E
:100570000003984710BD40F60003C4F200035A6917
:1005800040F200210A435A617047F0B5D6464F4603
:100590004646C0B540F20022C6F200021023536066
:1005A00043F20023C4F200031021C4F20201996255
:1005B0000021CCF2020199624424195D0420814398
:1005C0001955185D40F2010C61468843E2465146D8
:1005D0000843C0B218553225585D40F20F094C4609
:1005E000A04303273843C0B2585544F2000050617D
:1005F0009060C4F200009862C020000698623F3408
:100600001E5D61468E4351460E43F6B21E5540F2C2
:10061000370841465C5C49468C433C43E4B2414662
:100620005C5448F2000454619460C4F200049C627B
:1006300098624F269C5D61468C4351460C43E4B260
:100640009C5541465C5C0F273C4030263443E4B265
:100650005C542024946040F22008C4F20008414613
:100660009962986240F245084146585C6146884369
:1006700051460843C0B241465854595D3940314350
:10068000C9B2595554611CBC90469946A246F0BD6A
:1006900041F60043C4F200034022AC215A50043911
:1006A0005A5040F60003C4F20003DA69A6390A433F
:1006B000DA61704710B540F29163C0F200039847C9
:1006C00040F20041C4F2002140F23410C2F20000B6
:1006D00040F65943C0F20003984740F28B53C0F2F2
:1006E00000039847002010BD30B543F20023C4F248
:1006F00000034022995C0125A94301242143C9B28A
:1007000099543020195C313A91430C3A11431954F1
:1007100041215A5CAA432243D2B25A541A5C32395C
:100720000A4021310A431A5430BD41F60043C4F255
:1007300000034021B02299500331083A995040F605
:100740000003C4F20003DA693F390A43DA617047F3
:1007500010B540F22B73C0F20003984740F6000139
:10076000C4F2002140F24C10C2F20000002241F21B
:100770001B03C0F20003984740F2E963C0F2000394
:10078000984710BD40F60003C4F200035A6940F2D6
:1007900000110A435A61704710B540F28573C0F2E8
:1007A0000003984742F2D841C0F2000148220120DC
:1007B00041F26B03C0F20003984740F21810C2F2F6
:1007C000000042F20003C4F20003036042F2FF2380
:1007D000C0F20003984710BD10B541F60043C4F2C3
:1007E000000340219822995040F60003C4F2000310
:1007F000DA693F390A43DA6140F65933C0F200033F
:10080000984710BD70B541F60043C4F20003412182
:100810008C22995040F60003C4F200035A6940F25A
:1008200000410A435A6140F20022C6F200028020D1
:100830000005506043F20023C4F200030021C4F21B
:100840000201996240F60001CCF202019962506007
:100850005B215C5C04252C435C5490615A5C012054
:10086000824302435A541E395A5C0E3002405A5495
:1008700040F6A333C0F20003984770BD10B541F2B3
:100880005743C0F20003984740F20023C6F200032A
:1008900080225A619A6043F20023C4F20003C4F23A
:1008A00000029A62C02212069A6247215A5C012015
:1008B00082435A5440F28D43C0F20003984740F2FD
:1008C0004F53C0F20003984740F60003C4F2000300
:1008D000DA6910210A43DA6141F60043C4F20003E9
:1008E0003031B822995042F28D23C0F2000398476C
:1008F000020041F20001C4F2002140F25810C2F29D
:10090000000040F6DF63C0F20003984740F27753DF
:10091000C0F20003984741F68533C0F200039847C0
:1009200040F25173C0F20003984740F29973C0F24D
:100930000003984740F2D973C0F20003984740F68D
:100940000503C0F20003984710BD10B5836903B1D9
:10095000984710BD10B5C36903B1984710BDF0B5F5
:1009600083B005000E00036A5B5C5C00E418E400E1
:10097000836A9C466444271D01926B4619793800AE
:1009800041F23513C0F200039847280041F2FF33CB
:10099000C0F20003984701280AD9019B190A3800C0
:1009A00041F23513C0F200039847A38A0133A382B2
:1009B000A38A0133A382236813B13100280098472A
:1009C00003B0F0BDF0B5D6464F4680B583B0070002
:1009D000019116001C000AAB1D78002846D00029A2
:1009E00046D0002A46D0002015B10B98431E9841EE
:1009F00042F2F44AC0F2000A3F22514641F26B092A
:100A0000C0F20009C847621CEB0FD017AA42584138
:100A1000C0B240225146C8470023FF22F25401339E
:100A2000DBB29C42FAD23E622423FC540133FD54D3
:100A30000B9BBB620199380041F27733C0F200038F
:100A4000984770B940F65F13C0F20003BB6040F6F0
:100A50004B13C0F200033B6040F65513C0F2000395
:100A60007B6003B00CBC91469A46F0BD0020BFE706
:100A70000020BDE70020BBE7F0B583B007000C0005
:100A80000092019300B30AB31800431E984142F24A
:100A9000F445C0F200056622290041F26B06C0F25F
:100AA0000006B0472423FB5C0020A3424041C0B2B3
:100AB00067222900B047396A0B5DFF2B2CD1DB3B45
:100AC000F85C0026002307E00020E0E70020DEE7D6
:100AD0000133DBB2834205D8CA5CFF2AF8D0013665
:100AE000F6B2F5E72523FB5CB34218D373009B19DC
:100AF000DD00BB6A58190430019A009941F2D7030E
:100B0000C0F20003984768B93B6A1E55BB6A5B197F
:100B100000229A8203B0F0BD0D204042FAE71C206B
:100B20004042F7E70D204042F4E710B5040042F2DE
:100B3000F441C0F20001431E9841C0B2D62241F2F6
:100B40006B03C0F200039847200041F21143C0F24A
:100B500000039847002010BD10B541F63D23C0F2B8
:100B60000003984710BD70B540F25003C2F2000375
:100B70005C68A0420DD0012200210126FF2503E080
:100B80002A0053185B085BB9A042F9D942B1310081
:100B9000F7E740F25003C2F200031B6803B1984725
:100BA00070BD10B540F25003C2F200030122524260
:100BB0005A6000221A6040F66730C0F2000041F629
:100BC0001103C0F20003984710BD10B540F2500366
:100BD000C2F200035B68984209D009B340F25003A7
:100BE000C2F200031B6873B10D20404217E040F2CF
:100BF0005003C2F20003196059B941F61913C0F24B
:100C0000000398470BE040F25003C2F20003196062
:100C10005860012141F61913C0F20003984710BD36
:100C20000D204042FBE770B504000D0042F2105168
:100C3000C0F20001431E9841C0B2292241F26B0369
:100C4000C0F2000398472900200042F2B123C0F20D
:100C50000003984770BD000070B504000D0028B374
:100C60000800431E9841C0B242F22C51C0F200016C
:100C7000402241F26B03C0F2000398476560201DDB
:100C8000290041F6DB53C0F20003984700280CDB33
:100C9000074BA38240F62B53C0F20003236140F6BA
:100CA0006B53C0F20003E360002070BD0020DBE75F
:100CB0000080FFFF10B5040042F22C51C0F2000189
:100CC000431E9841C0B2572241F26B03C0F20003A9
:100CD0009847201D41F60373C0F20003984710BDEA
:100CE00030B587B004000D00E8B10800431E9841FC
:100CF000C0B242F22C51C0F20001B52241F26B03A6
:100D0000C0F2000398472B6803936B680493AB68A9
:100D100001930593201D03A941F63973C0F2000326
:100D2000984707B030BD0020E3E770B584B00400F9
:100D30000E00150042F22C51C0F20001431E9841F2
:100D4000C0B2882241F26B03C0F2000398470296BA
:100D500000230193039520000C3801A940F6E143DC
:100D6000C0F20003984704B070BD70B584B00400B1
:100D70000E00150042F22C51C0F20001431E9841B2
:100D8000C0B2A52241F26B03C0F2000398470023D2
:100D900002930196039520000C3801A940F6E14327
:100DA000C0F20003984704B070BD70B504000D0098
:100DB00088B10800431E9841C0B242F22C51C0F2E3
:100DC0000001BF2241F26B03C0F2000398470C34CC
:100DD0002C60002070BD0020EFE7F8B5CE464746F6
:100DE00080B5814603689C462BB18E681C000025A7
:100DF0000127BF1A0FE041F29103C0F200039847A8
:100E00001AE0FB18A06880464344B3420BD2236823
:100E100025005BB11C0063689342F2D8A06880464D
:100E200043449B1AF1E7A4450AD02C00200041F26C
:100E3000C303C0F2000398470CBC90469946F8BD26
:100E4000484641F29103C0F200039847F4E7F0B539
:100E5000D646474680B583B007004469036901332D
:100E600098460361037EDB0717D4037E9B0714D4E7
:100E7000BCB1434662689B1AA268934211D340F208
:100E8000140C84446346019341F2CB06C0F2000681
:100E900040F6DB5AC0F2000A15E03B7E0222134303
:100EA0003B7603B00CBC90469A46F0BD7D69E36882
:100EB00020009847002DF4D02C0043466A689B1A06
:100EC000AA689342EDD30198B047237C012BEDD162
:100ED00043466360424621000198D047E6E770B57B
:100EE00005000C00E8B10800431E9841C0B242F270
:100EF0004851C0F200013B2241F26B03C0F20003F3
:100F000098472100280042F27703C0F20003984777
:100F100000232B6140F64F63C0F200032B600020DA
:100F200070BD0020E3E7F8B5CE46474680B5040023
:100F30000F009046002837D0002937D01000431EFC
:100F4000984142F26051C0F20001F12241F26B037C
:100F5000C0F200039847083441F6BD55C0F20005C1
:100F60002000A8470028FBD0002641F6AD59C0F26A
:100F7000000941F6BD55C0F20005B95D2000C84723
:100F80002000A8470028FBD001364645F5D341F69E
:100F9000C755C0F200052000A8470028FBD030004C
:100FA0000CBC90469946F8BD0020CAE70020C8E76F
:100FB000F8B5CE46474680B504008846914640B312
:100FC00049B31000431E984142F26051C0F2000143
:100FD00040F20C1241F26B03C0F200039847002666
:100FE000083441F6D155C0F2000541F6B557C0F2BC
:100FF00000072000A8470028FBD02000B847434640
:10100000985501364E45F4D330000CBC90469946B5
:10101000F8BD0020D8E70020D6E770B505000C0029
:1010200008B30800431E9841C0B242F26051C0F2BA
:101030000001342241F26B03C0F2000398472800FC
:101040000830210041F67D53C0F20003984748B9AB
:1010500040F6B173C0F200036B6040F62773C0F234
:1010600000032B6070BD0020DFE700B900BE7047B1
:1010700003684BB18B4209D01B681BB19942FBD16D
:10108000012000E0002070470020FCE70120FAE783
:1010900070B504000D0041F27103C0F200039847DF
:1010A00042F27C51C0F2000101235840C0B2392203
:1010B00041F26B03C0F20003984723682B60256060
:1010C00070BD03680B600160704703680BB11A685C
:1010D00002601800704770B504000E00150078B16A
:1010E00019B301206AB942F29C51C0F200012822D2
:1010F000002041F26B03C0F2000398476B1E0DE025
:10110000002042F29C51C0F20001282241F26B0300
:10111000C0F2000398476B1E2B4208D16360002386
:10112000A360E3602660002070BD0020E9E70D2089
:101130004042F9E770B504000D0042F29C51C0F244
:101140000001431E9841C0B2512241F26B03C0F22C
:10115000000398476368E26813402268D554E36847
:101160006168A2689A1A8A4201D9591AA1600133AA
:10117000E360002070BD10B54269917953790B404E
:10118000D90704D499070AD45B070ED410BD0123F4
:101190009371928C92B2836800219847F6E70223FC
:1011A0009371436800219847F0E704239371036823
:1011B00000219847EAE70020704770B504000D0051
:1011C00042F2DC51C0F200014EF20043CBF6FF5375
:1011D000C01843425841C0B2B12241F26B03C0F281
:1011E00000039847238CDB0718D40322238C134277
:1011F000FCD123789B070BD52378022293432370DD
:101200000132238C1342FCD10222238C1342FCD1E5
:10121000012323700322238C1342FCD10122238C4F
:101220001342FCD1EB005B1B9B0042F2C052C0F2A8
:101230000002944663449A786270DA78A2701A7950
:10124000E270DB88238140F2FF72238C1342FCD1D1
:10125000EB005B1B9B0042F2C052C0F200029446BE
:1012600063441B89638140F2FF72238C1342FCD1DB
:10127000EB005B1B9B0042F2C052C0F2000294469E
:1012800063449B7A237340F2FF72238C1342FCD198
:10129000EB005B1B9B0042F2C052C0F2000294467E
:1012A0006344DB7A637340F2FF72238C1342FCD1F8
:1012B000EB005B1B9B0042F2C052C0F2000294465E
:1012C00063449B89E3814022238C1342FCD1EB00D1
:1012D0005B1B9B0042F2C052C0F200029446634482
:1012E000DB8923828022238C1342FCD1EB005B1B21
:1012F0009B0042F2C052C0F20002944663441B8A33
:10130000638240F20012238C1342FCD1EB005B1B82
:101310009B0042F2C052C0F20002944663445B8AD2
:10132000A38240F20022238C1342FCD1EB005A1B13
:10133000920042F2C051C0F200018C466244127D1C
:1013400022770022A26246F22002C0F280021168D7
:101350008A06520F090240F2007001400A43A2853A
:101360005D1BAD0065446B7823700322238C134210
:10137000FCD1002070BD70B505000C0042F2DC51BC
:10138000C0F20001431E9841C0B2ED2241F26B034E
:10139000C0F200039847200041F2B713C0F20003E7
:1013A00098470100200041F2BB13C0F200039847A8
:1013B00000B170BD6C6141F60043C4F200239C4251
:1013C00017D04EF20013CEF20003842420221A51CB
:1013D000BFF34F8FBFF36F8F40F284115A505A60A2
:1013E00020321A51BFF34F8FBFF36F8F5A505A609C
:1013F000DFE740F25803C2F200031D60E1E74369F2
:1014000058898006800F0338431E98410130704789
:101410004269137E02210B43137640F2FF71138C55
:101420000B42FCD1704710B540F25803C2F20003E2
:10143000186841F27713C0F20003984710BD10B549
:1014400040F25803C2F20003186841F27713C0F269
:101450000003984710BD10B545F20003C4F2001315
:101460005A685A60002041F64B33C0F20003984797
:1014700041F60333C0F20003984741F61B33C0F234
:101480000003984741F6F523C0F20003984741F660
:101490004933C0F2000398471F2041F6A723C0F24A
:1014A0000003984740F60003C4F200031A690821BC
:1014B0000A431A6141F2C143C0F20003984710BDCC
:1014C000F0B5CE46474680B546F20003C4F200139D
:1014D0001A8802218A431A801A8802318A431A80A4
:1014E0004022995C01200143C9B2995440F6007230
:1014F0001A805A7B01218A430243D2B25A730022D6
:101500005A6140F28012C2F200025A6340F2002295
:10151000C2F200029A6342F2F452C0F200020021C9
:1015200046F20000C4F2001040F23F0C40240127B4
:1015300040F28015C2F2000540F20009CBB26646C7
:101540008355035D984613789B093B409B014646B3
:10155000A6433343035553684364138998460B01EC
:1015600046465E5340F28016C2F20006B04643443F
:101570004E46DE6001310C320829DFD10B231F24D7
:1015800001204EF20011CEF20001DAB21D060FD595
:101590000133102BF9D146F20003C4F200131A886C
:1015A00002210A431A8000200CBC90469946F0BDE7
:1015B0005D092240060096402A002035AD006E509D
:1015C000BFF34F8FBFF36F8F15006035AD006E50C6
:1015D00092005650DCE770B546F20002C4F20012E9
:1015E000118C07230B403F24155DEDB25800C01845
:1015F000800040F25C01C2F200018C466044135549
:101600004E21515CC9B21555CA0702D48A070AD4C3
:1016100070BD46F20002C4F200123E3C4E2154540A
:1016200043689847F4E746F20002C4F2001202242D
:101630004E21545440F25C01C2F200015A00D3180A
:101640009B005B589847E3E770B546F20002C4F28E
:101650000012118C07230B403F24155DEDB258009A
:10166000C018800040F25C01C2F200018C46604468
:1016700013554E21515CC9B21555CA0702D48A07C9
:101680000AD470BD46F20002C4F200123E3C4E2164
:10169000545443689847F4E746F20002C4F200123B
:1016A00002244E21545440F25C01C2F200015A005F
:1016B000D3189B005B589847E3E770B546F20002E9
:1016C000C4F20012118C07230B403F24155DEDB2CC
:1016D0005800C018800040F25C01C2F200018C4644
:1016E000604413554E21515CC9B21555CA0702D446
:1016F0008A070AD470BD46F20002C4F200123E3CD2
:101700004E21545443689847F4E746F20002C4F26D
:10171000001202244E21545440F25C01C2F2000136
:101720005A00D3189B005B589847E3E770B546F220
:101730000002C4F20012118C07230B403F24155DF8
:10174000EDB25800C018800040F25C01C2F2000106
:101750008C46604413554E21515CC9B21555CA07D9
:1017600002D48A070AD470BD46F20002C4F2001205
:101770003E3C4E21545443689847F4E746F2000239
:10178000C4F2001202244E21545440F25C01C2F211
:1017900000015A00D3189B005B589847E3E770B5E7
:1017A00046F20002C4F20012118C07230B403F24C2
:1017B000155DEDB25800C018800040F25C01C2F225
:1017C00000018C46604413554E21515CC9B2155539
:1017D000CA0702D48A070AD470BD46F20002C4F2D6
:1017E00000123E3C4E21545443689847F4E746F2B9
:1017F0000002C4F2001202244E21545440F25C0153
:10180000C2F200015A00D3189B005B589847E3E7E7
:1018100042F60023C4F200035B68DB0734D442F6CF
:101820000022C4F20002032153681942FCD142F69F
:101830000023C4F200031B789B0717D542F6002350
:10184000C4F200031A7802218A431A7042F6002279
:10185000C4F20002013153681942FCD142F6002261
:10186000C4F20002022153681942FCD142F600235F
:10187000C4F2000301221A7042F60022C4F20002F0
:10188000032153681942FCD142F60022C4F200023F
:10189000012153681942FCD142F60022C4F2000231
:1018A000137810218B430B43137042F60022C4F2CD
:1018B00000020D3953681942FCD142F60023C4F2EC
:1018C000000320221A6400225A639A609A611A6304
:1018D000A022D203DA611A7802210A431A7042F672
:1018E0000022C4F20002013153681942FCD14EF2C9
:1018F0000013CEF2000380229A50BFF34F8FBFF344
:101900006F8F40F280115A501A6040F2BC03C2F24D
:1019100000031860002070471B2802D001204042BD
:10192000704741B942F60023C4F200032022DA6076
:101930005A610020F4E742F60023C4F2000320229B
:101940001A610020ECE7F0B5C64600B582B042F659
:101950000023C4F200035A690192019A5A6142F2CB
:101960005C61C0F2000140F2BC03C2F200031868DF
:10197000431E9841C0B2F22241F26B03C0F2000351
:101980009847019B002B55D001235B42984642F2B9
:101990005465C0F2000541E0013AD1B28F420CD843
:1019A000CB195B10DAB20340DB005B5DA34208D0C9
:1019B0009C42F1DD0132D7B2F0E74346013309D052
:1019C00001E040F21B0840F2BC03C2F200031B68B6
:1019D00040469847019B3200A240934301930198EF
:1019E00042F22543C0F200039847013844B2631C19
:1019F0000AD0052C05D00523002200273100FF2046
:101A0000D6E740F21B08DEE742F60023C4F20003EB
:101A10005A690192019A5A61019B5BB1019842F2A5
:101A20002543C0F200039847013844B20126631CE5
:101A3000DFD1E9E702B004BC9046F0BD70B540F2DA
:101A40000023C4F20023002240F2E0115A5008396A
:101A50005A50012342F27461C0F2000108E040F2E2
:101A60002030C4F20020181802700133172B03D065
:101A70005A5C002AF3D1F8E7163B40F20022C4F288
:101A800000224CF20C26252500242420FF2104E00E
:101A90001662545511540133DBB2012BF8D0072BD9
:101AA000F9D9002070BDC30710D541F60043C4F238
:101AB000000342F20512C0F201021A6241F600422E
:101AC000C4F200027D2153681942FCD1830710D56E
:101AD00041F60043C4F2000342F20312C0F20102D5
:101AE0005A6241F60042C4F200027D215368194255
:101AF000FCD1704740F60003C4F2000301221A71C2
:101B0000704741F20043C4F20003DA6941F6007104
:101B10000A40DA6101221A74704741F20003C4F2EC
:101B2000000342221A7641F20002C4F200021021A0
:101B300013691942FCD041F20003C4F200031A7E7B
:101B400080210A431A767047704740F20043C4F27E
:101B500000039B7803221340984212D040F20042C7
:101B6000C4F20002FF239371937803218B43084052
:101B70001843907040F20042C4F200029379002BA7
:101B8000FCD0704742F20042C4F200020121136906
:101B90001942FCD142F20042C4F2000248F20301B1
:101BA00013691942FCD142F20043C4F200031B88BE
:101BB0009B0718D542F20043C4F200031A880221A1
:101BC0008A431A8042F20042C4F2000248F2030142
:101BD00013691942FCD142F20042C4F20002022110
:101BE00013691942FCD142F20043C4F200031A887F
:101BF00001210A431A8042F20042C4F20002136932
:101C00001942FCD142F20042C4F2000201211369E0
:101C10001942FCD142F20043C4F2000380221A8030
:101C200042F20042C4F2000248F203011369194271
:101C3000FCD142F20043C4F2000340F200125A60A9
:101C400040F6CC421A6242F20042C4F20002202165
:101C500013691942FCD142F20042C4F20002138817
:101C600002218B430B43138042F20042C4F2000274
:101C700048F2030113691942FCD10020704730B5C6
:101C800085B001AA42F28C63C0F2000332CB32C2AB
:101C90000300019A82420CD0029A824207D00020AF
:101CA000039A9A4201D005B030BD023002E0012013
:101CB00000E00020C0B2F6E7C369DB0709D403687F
:101CC0000222134303600132C3691A42FCD100208F
:101CD000704704204042FBE710B5040041F67F4303
:101CE000C0F20003984701280BD042F2B061C0F265
:101CF000000140F24722002041F26B03C0F20003D2
:101D00009847E369DB0718D40322E3691A42FCD140
:101D100023689B070BD5236802229343236001327B
:101D2000E3691A42FCD10222E3691A42FCD105237D
:101D300023600322E3691A42FCD10122E3691A42BB
:101D4000FCD10423C4F2100323600322E3691A4286
:101D5000FCD1C0239B0263600F22E3691A42FCD1CD
:101D60000223C0F27003A360034BA3810023A3737B
:101D70003022A354002010BD2BF6FFFF70B50500E4
:101D80000C0042F2B061C0F20001431E9841C0B2A3
:101D9000BB2241F26B03C0F2000398472C60200085
:101DA00041F6D943C0F20003984770BD036889B279
:101DB000198570470368188DC0B270470368187E94
:101DC0000123184070470368187E8007C00F7047D2
:101DD0000368187E4007C00F704770B505000C00FF
:101DE000080041F67F43C0F20003984790B1002DF0
:101DF00068D042F2B061C0F20001601E8441E0B2DE
:101E000040F6361241F26B03C0F2000398470D20F2
:101E1000404256E0002D64D142F2B061C0F20001B0
:101E200040F63612002041F26B03C0F200039847DF
:101E3000E369DB0718D40322E3691A42FCD1236863
:101E40009B070BD523680222934323600132E36989
:101E50001A42FCD10222E3691A42FCD10D2323600D
:101E60000322E3691A42FCD10122E3691A42FCD140
:101E70002C6042F2B061C0F200012000431E984184
:101E8000C0B240F6001241F26B03C0F20003984763
:101E90000C23C0F2010323600322E3691A42FCD140
:101EA00080239B0263600722E3691A42FCD101236D
:101EB000237300213022A1542B71FF33FF33EB80B9
:101EC000002070BD42F2B061C0F2000140F636124F
:101ED000002041F26B03C0F2000398470D204042FE
:101EE000EFE742F2B061C0F200012000431E9841CA
:101EF000C0B240F6361241F26B03C0F200039847BD
:101F000096E710B50400A8B10068431E9841C0B21E
:101F100042F2B061C0F2000140F6951241F26B034B
:101F2000C0F200039847206841F6B943C0F20003AD
:101F3000984710BD0020EBE7F0B5DE4657464E4609
:101F40004546E0B583B081460E0004680B689846AC
:101F50004D6803790193E8B12000431E9841C0B257
:101F600042F2B061C0F2000140F69A2241F26B03E6
:101F7000C0F200039847E3695B0740D10323E0699F
:101F800018400028FBD123689B073BD5020040F294
:101F9000010C09E00020E3E7013501325BB2002BC0
:101FA00016DBB368834227D9237EDBB204211942B2
:101FB0002BD0A76A002DF0D02F7001990129EBD901
:101FC0003F0A6F700235E8E740F2010BD84436E073
:101FD00001235B4263838133237613204042032233
:101FE000237E1342FCD00323237603B03CBC9046EF
:101FF0009946A246AB46F0BD9342D5D8EFE7042000
:102000004042F2E714204042EFE79042C6D86746CC
:102010001F42C3D04F46FF88BA4647467FB13F783C
:10202000BA4601990129CFD947467F783F02BB467E
:10203000574659460F43BA4640F2020BD844013086
:102040005746A762AAE710B54FF2000CCBF6FF5C2B
:102050006044800AC0B268B142F2E461C0F200019B
:1020600040F23C12002041F26B03C0F2000398479B
:102070000120404210BD70B506000C00080042F27D
:102080004703C0F2000398470500F46042F2E461A0
:10209000C0F200018D22012041F26B03C0F2000367
:1020A00098472369DB0718D4032223691A42FCD11D
:1020B00023689B070BD523680222934323600132D8
:1020C00023691A42FCD1022223691A42FCD101235E
:1020D0002360032223691A42FCD1012223691A4298
:1020E000FCD16B005B19DB0042F2CC62C0F2000253
:1020F0009446634459682160032223691A42FCD143
:102100006B005B19DB0042F2CC62C0F20002944625
:1021100063449A7AE2731B89E380012323730B33B0
:102120000B40082B65D0002B00D082E06B005B19C0
:10213000DB0042F2CC62C0F20002944663441B8A88
:10214000A383C02223691A42FCD10023E383C02267
:1021500023691A42FCD16B005B19DB0042F2CC62AE
:10216000C0F20002944663449B8963832022236962
:102170001A42FCD10123637241F20003C4F200232E
:102180009C4200D17CE06B005B19DB0042F2CC6228
:10219000C0F200029446634401229A56002A26DBCC
:1021A00053091F21114001228A404EF20011CEF244
:1021B000000120339B005A50BFF34F8FBFF36F8F46
:1021C0006B005D19ED0065440122AA56002A0EDB62
:1021D00053091F21114001228A404EF20011CEF214
:1021E000000118006030800042509B005A500020CF
:1021F00070BD6B005B19DB0063441B69E361C022A7
:1022000023691A42FCD100232362C02223691A42A7
:10221000FCD16B005B19DB0042F2CC62C0F2000221
:1022200094466344DB68A361202223691A42FCD1EF
:10223000A0E7042B9ED16B005B19DB0042F2CC625D
:10224000C0F20002944663441B7C2377C0222369BA
:102250001A42FCD100236377C02223691A42FCD1C1
:102260006B005B19DB0042F2CC62C0F200029446C4
:1022700063441B7BE376202223691A42FCD179E771
:1022800040F2C003C2F200031E607CE700207047EA
:1022900010B540F2C003C2F200031868C3689A7A0E
:1022A000D20700D410BD01229A7203689847F9E75B
:1022B00070B505000C00E8B10800431E9841C0B29B
:1022C00042F2F861C0F200013D2241F26B03C0F21C
:1022D0000003984723789B070ED42378402293432A
:1022E000237023793F3A934323712C6020232B7171
:1022F000002070BD0020E3E711204042F9E710B54F
:10230000040000282BD00068431E9841C0B242F25E
:102310001071C0F20001502241F26B03C0F20003C1
:10232000984723681E219A681142FCD11A78D20975
:10233000BAB91E219A681142FCD11A78920713D4B7
:102340001A7804218A431A701A319A681142FCD112
:10235000226853780F218B435370002010BD00205A
:10236000D5E711204042F9E711204042F6E710B5C9
:1023700042F2D333C0F20003984740F21133C0F267
:1023800000039847002010BD40F2C403C2F20003CE
:1023900001221A70704710B542F20043C4F20003E4
:1023A00040F200129A8140F2EC00C2F2000040F6C6
:1023B0002B33C0F20003984710BD10B542F28931AB
:1023C000C0F200011B2040F6CB33C0F20003984757
:1023D00010BD70B540F29933C0F20003984740F247
:1023E000B563C0F200039847050042F2BB33C0F268
:1023F0000003984740F2C401C2F20001043140F2E8
:102400003414C2F20004200040F6AB53C0F20003C3
:102410009847200040F6B543C0F2000398472800D3
:1024200070BD000010B5002310B100F003F8431C8C
:10243000180010BD414208401C2101231B04984292
:1024400001D3000C10391B0A984201D3000A083945
:102450001B09984201D30009043902A2105C401AFA
:102460007047C0461B1C1D1D1E1E1E1E1F1F1F1F4A
:102470001F1F1F1F70B500250E4B0F4CE41AA41030
:10248000A54209D1002500F04FF90C4C0C4BE41A81
:10249000A410A54207D170BD064AAB009B181B686B
:1024A00098470135ECE7064AAB009B181B68984734
:1024B0000135EEE7342700003427000038270000FC
:1024C00034270000002310B59A4200D110BDCC5C27
:1024D000C4540133F8E700002E2E2F68616C2F6979
:1024E0006E636C7564652F68616C5F7764742E68C9
:1024F000000000002E2E2F68616C2F7372632F680E
:10250000616C5F6164635F6173796E632E63000069
:102510002E2E2F68616C2F7372632F68616C5F724F
:10252000616E645F73796E632E6300002E2E2F68D8
:10253000616C2F7372632F68616C5F7370695F6D7C
:102540005F73796E632E63002E2E2F68616C2F737C
:1025500072632F68616C5F74696D65722E63000031
:102560002E2E2F68616C2F7372632F68616C5F75FC
:10257000736172745F73796E632E63002E2E2F6801
:10258000616C2F7574696C732F7372632F75746926
:102590006C735F6C6973742E630000002E2E2F68BD
:1025A000616C2F7574696C732F7372632F75746906
:1025B0006C735F72696E676275666665722E630022
:1025C00000C000000200001800000006000000002B
:1025D0000000000000000000000000002E2E2F6808
:1025E000706C2F6164632F68706C5F6164632E632D
:1025F00000000000420000000013800008090000F5
:1026000000000000000000000000000000000000CA
:1026100000000000000000000000000000000000BA
:1026200000000000000000000000000000000000AA
:10263000000000000000000000000000000000009A
:10264000000000000000000000000000000000008A
:1026500000000000050000001B0000002E2E2F6867
:10266000706C2F6569632F68706C5F6569632E639A
:10267000000000000000000000000000000000005A
:102680000000010000000000000000000004004203
:1026900000080042000C00420000000000000000A2
:1026A000000000000000000000000000000000002A
:1026B0002E2E2F68706C2F736572636F6D2F68708C
:1026C0006C5F736572636F6D2E6300000022000003
:1026D000080300000000000000000000F4010000FA
:1026E000000000002E2E2F68706C2F74632F68700E
:1026F0006C5F74632E6300002E2E2F68706C2F7435
:10270000726E672F68706C5F74726E672E63000064
:102710002E2E2F68706C2F7764742F68706C5F7723
:1027200064742E6300000000F8B5C046F8BC08BC15
:102730009E46704741020000F8B5C046F8BC08BC90
:082740009E46704715020000DF
:10274800003651A7103030303030300000242514C6
:08275800150102343536373952
:10FB00007FE97FE9F0F70FBB7FE97FE9F0F7F2BA11
:10FB100000000000000000000000000000000000E5
:0200000400807A
:104000003F438FB0BB180000FF20087F0100000075
:1040100000000000000000000000000000000000A0
:00000001FF
