:1000000068080020B1020000AD020000AD0200004F
:1000100000000000000000000000000000000000E0
:10002000000000000000000000000000AD02000021
:100030000000000000000000AD020000AD02000062
:10004000AD020000AD020000EB240000AD02000094
:10005000AD020000AD020000AD020000DD1900009D
:10006000AD020000AD020000AD0200006D16000000
:10007000DF16000051170000C317000035180000FC
:10008000AD020000AD020000AD020000AD020000B4
:10009000AD020000AD020000AD020000AD020000A4
:1000A000AD020000AD020000AD020000AD02000094
:1000B000AD020000AD020000AD020000AD02000084
:1000C000AD020000AD02000029230000AD020000D7
:1000D000AD020000571300006F130000AD020000D6
:1000E000AD020000AD020000AD020000AD02000054
:1000F000AD020000FF2303409B0041F6004CC4F218
:10010000000C634480229A580120520604D44022F5
:100110001143403299500020010002000300844640
:100120008EF300887447F0B5CE46474680B587B059
:10013000029003910492059342F60023C4F2000357
:10014000986899691A6BDC69A4461F6C029E464048
:100150003E404640049B01931D004D403D404D40B4
:10016000059C54403C405440A146002100230120FE
:1001700040F20F0802E00133082B08D002009A4039
:100180001742F8D09A00444694402143F3E7604672
:10019000039B584008406346584042F60023C4F28F
:1001A00000031A7802218A431A7042F60022C4F230
:1001B0000002013153681942FCD142F60022C4F218
:1001C0000002022153681942FCD142F60023C4F216
:1001D00000039E609D614A461A63D8611A78022125
:1001E0000A431A7042F60022C4F200020131536839
:1001F0001942FCD1002007B0010002000300844630
:100200000CBC90469946F0BC02BC864681F300883F
:100210000C47000010B540F21004C2F2000423782D
:1002200063B940F20003C0F200032BB144F2200096
:10023000C0F2800000E000BF0123237010BDC04663
:1002400040F20003C0F2000310B54BB140F21401BC
:1002500044F22000C2F20001C0F2800000E000BFC2
:1002600044F22000C0F28000036803B910BD40F2E0
:100270000003C0F20003002BF8D09847F6E7C04611
:1002800010B540F21373C0F20003984743F2002305
:10029000C4F200030022DA664EF20013CEF200032D
:1002A00040F280215A5004315A5010BDFEE7000040
:1002B00010B542F6CC32C0F2000240F20003C2F2A6
:1002C00000039A4220D01A0040F20803C2F2000351
:1002D0009A4219D240F20803C2F200030333244ABF
:1002E0009B1A9B0801339B00002240F20001C2F2DE
:1002F0000001511842F6CC30C0F20000101800681E
:10030000086004329A42F0D140F21002C2F20002B8
:1003100040F26423C2F200039A4213D240F2100268
:10032000C2F20002D34340F26421C2F200018C46C3
:10033000634403218B43043394466344002102C287
:100340009342FCD140F20003C0F200037F229343AA
:100350004EF60052CEF20002936042F6F903C0F26C
:100360000003984742F24D63C0F200039847FEE74E
:1003700004000020F0B585B040F60003C4F200038D
:10038000DA6980210A43DA6141F60043C4F20003CE
:100390004039C022995040F22C04C2F2000441F6C8
:1003A0000041C4F2002140F2CC05C2F20005002356
:1003B000029340F2FC03C2F200030193012700976D
:1003C00000232200280040F66506C0F20006B04770
:1003D000221D10230021280040F61914C0F2000449
:1003E000A04740F20023C6F2000304225A6043F201
:1003F0000023C4F20003C4F200029A62C022120673
:100400009A624222995CB94301200143C9B29954CE
:1004100031215A5C0F24A2430243D2B25A5405B090
:10042000F0BD40F60003C4F20003DA6940F2004177
:100430000A43DA61704710B540F22343C0F200036B
:10044000984742F60001C4F2002140F2C400C2F213
:10045000000040F64333C0F20003984710BD40F659
:100460000003C4F200035A6940F200210A435A61B2
:100470007047F0B5C64600B540F20024C6F200044D
:100480001023636043F20023C4F200031022C4F27D
:1004900002029A620022CCF202029A6244215A5C61
:1004A000042082435A545A5C0126B24301252A4350
:1004B000D2B25A5412395A5C40F20F0C6046824351
:1004C00003273A43D2B25A5444F200026261A26056
:1004D000C4F200029A62C022120690469A621C314F
:1004E000585CB0432843C0B258543720195C624668
:1004F00091433943C9B2195448F200016161A160C6
:10050000C4F20001996242469A624F215A5CB2439A
:100510002A43D2B25A541A5C40390A4021310A4364
:100520001A5404BC9046F0BD41F60043C4F20003E7
:100530004022AC215A5004395A5040F60003C4F20C
:100540000003DA69A6390A43DA61704710B540F250
:100550002953C0F20003984740F20041C4F2002141
:1005600040F21410C2F2000040F67533C0F20003EE
:10057000984740F27343C0F20003984710BD30B56E
:1005800043F20023C4F200034022995C0125A943F1
:1005900001242143C9B299543020195C313A914366
:1005A0000C3A1143195441215A5CAA432243D2B256
:1005B0005A541A5C32390A4021310A431A5430BD68
:1005C00041F60043C4F200034021B02299500331A8
:1005D000083A995040F60003C4F20003DA693F3943
:1005E0000A43DA61704710B540F2C153C0F200030C
:1005F000984740F60001C4F2002140F22C10C2F2EC
:100600000000002240F63773C0F20003984740F222
:100610007F53C0F20003984710BD40F60003C4F2B8
:1006200000035A6940F200110A435A61704710B53D
:1006300040F21B63C0F20003984742F64811C0F233
:1006400000014822012040F68773C0F2000398475A
:1006500040F2F800C2F2000042F20003C4F20003CC
:10066000036042F29733C0F20003984710BD10B503
:1006700041F60043C4F2000340219822995040F60D
:100680000003C4F20003DA693F390A43DA6140F635
:100690003F23C0F20003984710BD70B541F60043F8
:1006A000C4F2000341218C22995040F60003C4F2A9
:1006B00000035A6940F200410A435A6140F20022A5
:1006C000C6F2000280200005506043F20023C4F20D
:1006D00000030021C4F20201996240F60001CCF24D
:1006E0000201996250605B215C5C04252C435C54E0
:1006F00090615A5C0120824302435A541E395A5C6D
:100700000E3002405A5440F68923C0F20003984745
:1007100070BD10B541F28733C0F20003984740F234
:100720000023C6F2000380225A619A6043F200233C
:10073000C4F20003C4F200029A62C02212069A6256
:1007400047215A5C012082435A5440F27533C0F26B
:100750000003984740F23743C0F20003984740F641
:100760000003C4F20003DA6910210A43DA6141F69A
:100770000043C4F200033031B822995042F22533CD
:10078000C0F200039847020041F20001C4F20021C8
:1007900040F23810C2F2000040F6FB53C0F20003F2
:1007A000984740F25F43C0F20003984741F61B436D
:1007B000C0F20003984740F24D53C0F2000398473F
:1007C00040F2E753C0F20003984740F22F63C0F2B3
:1007D0000003984740F26F63C0F20003984740F26D
:1007E0009B63C0F20003984710BD10B5836903B145
:1007F000984710BD10B5C36903B1984710BDF0B557
:1008000083B005000E00036A5B5C5C00E418E40042
:10081000836A9C466444271D01926B46197938000F
:1008200041F25103C0F200039847280041F22F33F0
:10083000C0F20003984701280AD9019B190A380021
:1008400041F25103C0F200039847A38A0133A38207
:10085000A38A0133A382236813B13100280098478B
:1008600003B0F0BDF0B5D6464F4680B583B0070063
:10087000019116001C000AAB1D78002846D0002903
:1008800046D0002A46D0002015B10B98431E98414F
:1008900042F6641AC0F2000A3F22514640F68779B8
:1008A000C0F20009C847621CEB0FD017AA4258419A
:1008B000C0B240225146C8470023FF22F254013300
:1008C000DBB29C42FAD23E622423FC540133FD5435
:1008D0000B9BBB620199380041F29323C0F20003E5
:1008E000984770B940F2FF73C0F20003BB6040F25A
:1008F000EB73C0F200033B6040F2F573C0F20003FB
:100900007B6003B00CBC91469A46F0BD0020BFE767
:100910000020BDE70020BBE7F0B583B007000C0066
:100920000092019300B30AB31800431E984142F6A7
:100930006415C0F200056622290040F68776C0F2F1
:100940000006B0472423FB5C0020A3424041C0B214
:1009500067222900B047396A0B5DFF2B2CD1DB3BA6
:10096000F85C0026002307E00020E0E70020DEE737
:100970000133DBB2834205D8CA5CFF2AF8D00136C6
:10098000F6B2F5E72523FB5CB34218D373009B193D
:10099000DD00BB6A58190430019A009940F6F373E0
:1009A000C0F20003984768B93B6A1E55BB6A5B19E1
:1009B00000229A8203B0F0BD0D204042FAE71C20CD
:1009C0004042F7E70D204042F4E7F8B507000C007D
:1009D00042F66416C0F20006431E9841C0B283225C
:1009E000310040F68775C0F20005A8472423FB5C60
:1009F0000020A3424041C0B284223100A847210018
:100A0000380041F21B33C0F2000398470020F8BDC4
:100A100010B5040042F66411C0F20001431E984173
:100A2000C0B2D62240F68773C0F200039847200078
:100A300041F24133C0F200039847002010BD10B5C9
:100A400041F6D323C0F20003984710BD70B540F2C1
:100A50004003C2F200035C68A0420DD001220021D5
:100A60000126FF2503E02A0053185B085BB9A0426A
:100A7000F9D942B13100F7E740F24003C2F2000376
:100A80001B6803B1984770BD10B540F24003C2F235
:100A90000003012252425A6000221A6040F64D20A3
:100AA000C0F2000041F6A703C0F20003984710BD52
:100AB00010B540F24003C2F200035B68984209D0CF
:100AC00009B340F24003C2F200031B6873B10D206A
:100AD000404217E040F24003C2F20003196059B9E6
:100AE00041F6AF13C0F2000398470BE040F2400319
:100AF000C2F2000319605860012141F6AF13C0F241
:100B00000003984710BD0D204042FBE770B506007A
:100B10000C00150098B10800431E9841C0B242F67F
:100B20008011C0F20001342240F68773C0F2000346
:100B3000984733682A0021003000984770BD002094
:100B4000EDE770B504000D0042F69411C0F200010B
:100B5000431E9841C0B2292240F68773C0F20003B9
:100B600098472900200042F24933C0F20003984719
:100B700070BD000070B504000D0028B30800431ECE
:100B80009841C0B242F6B011C0F20001402240F6D6
:100B90008773C0F2000398476560201D290041F665
:100BA0007363C0F20003984700280CDB074BA38255
:100BB00040F68743C0F20003236140F64743C0F28A
:100BC0000003E360002070BD0020DBE70080FFFF32
:100BD00010B5040042F6B011C0F20001431E984166
:100BE000C0B2572240F68773C0F200039847201D19
:100BF00041F69B73C0F20003984710BD30B587B033
:100C000004000D00E8B10800431E9841C0B242F64E
:100C1000B011C0F20001B32240F68773C0F20003A6
:100C200098472B6803936B680493AB680193059313
:100C3000201D03A941F6D173C0F20003984707B005
:100C400030BD0020E3E770B584B004000E0015004D
:100C500042F6B011C0F20001431E9841C0B2A32277
:100C600040F68773C0F20003984700230293019671
:100C7000039520000C3801A940F6FD33C0F20003B3
:100C8000984704B070BD70B584B004000E00150024
:100C900042F6B011C0F20001431E9841C0B2872253
:100CA00040F68773C0F20003984702960023019331
:100CB000039520000C3801A940F6FD33C0F2000373
:100CC000984704B070BD70B504000D0088B10800ED
:100CD000431E9841C0B242F6B011C0F20001BD22DD
:100CE00040F68773C0F2000398470C342C60002054
:100CF00070BD0020EFE7F8B5CE46474680B5814687
:100D000003689C462BB18E681C0000250127BF1A82
:100D10000FE040F6AD73C0F2000398471AE0FB18ED
:100D2000A06880464344B3420BD2236825005BB1E0
:100D30001C0063689342F2D8A068804643449B1A23
:100D4000F1E7A4450AD02C00200040F6DF73C0F282
:100D5000000398470CBC90469946F8BD484640F6BB
:100D6000AD73C0F200039847F4E7F0B5D6464746A6
:100D700080B583B007004469036901339846036175
:100D8000037EDB0717D4037E9B0714D4BCB1434614
:100D900062689B1AA268934211D340F2140C8444F7
:100DA0006346019340F6E776C0F2000640F6F74A44
:100DB000C0F2000A15E03B7E022213433B7603B0EB
:100DC0000CBC90469A46F0BD7D69E36820009847C8
:100DD000002DF4D02C0043466A689B1AAA689342FF
:100DE000EDD30198B047237C012BEDD143466360DE
:100DF000424621000198D047E6E770B505000C0097
:100E0000E8B10800431E9841C0B242F6CC11C0F2CE
:100E100000013B2240F68773C0F20003984721008F
:100E2000280042F20F13C0F20003984700232B6101
:100E300040F66B53C0F200032B60002070BD002011
:100E4000E3E7F8B5CE46474680B504000F0090466C
:100E5000002837D0002937D01000431E984142F6B1
:100E6000E411C0F20001F12240F68773C0F20003E2
:100E70009847083441F65565C0F200052000A847A0
:100E80000028FBD0002641F64569C0F2000941F672
:100E90005565C0F20005B95D2000C8472000A8478D
:100EA0000028FBD001364645F5D341F65F65C0F218
:100EB00000052000A8470028FBD030000CBC90465D
:100EC0009946F8BD0020CAE70020C8E7F8B5CE462D
:100ED000474680B504008846914640B349B31000A8
:100EE000431E984142F6E411C0F2000140F20C1298
:100EF00040F68773C0F2000398470026083441F695
:100F00006965C0F2000541F64D67C0F20007200098
:100F1000A8470028FBD02000B84743469855013623
:100F20004E45F4D330000CBC90469946F8BD0020E5
:100F3000D8E70020D6E770B505000C0008B308001C
:100F4000431E9841C0B242F6E411C0F200013422BF
:100F500040F68773C0F2000398472800083021004C
:100F600041F61563C0F20003984748B940F6CD63D7
:100F7000C0F200036B6040F64363C0F200032B60D5
:100F800070BD0020DFE700B900BE704703684BB1B9
:100F90008B4209D01B681BB19942FBD1012000E0B4
:100FA000002070470020FCE70120FAE770B504003C
:100FB0000D0040F68D73C0F20003984742F6002101
:100FC000C0F2000101235840C0B2392240F68773B5
:100FD000C0F20003984723682B60256070BD03684A
:100FE0000B600160704703680BB11A68026018005B
:100FF000704770B504000E00150078B119B30120D8
:101000006AB942F62021C0F200012822002040F6F1
:101010008773C0F2000398476B1E0DE0002042F674
:101020002021C0F20001282240F68773C0F200039D
:1010300098476B1E2B4208D163600023A360E360D6
:101040002660002070BD0020E9E70D204042F9E74E
:1010500070B504000D0042F62021C0F20001431ECD
:101060009841C0B2512240F68773C0F200039847FE
:101070006368E26813402268D554E3686168A26837
:101080009A1A8A4201D9591AA1600133E3600020FB
:1010900070BD10B54269917953790B40D90704D4DA
:1010A00099070AD45B070ED410BD01239371928C6B
:1010B00092B2836800219847F6E702239371436850
:1010C00000219847F0E704239371036800219847B3
:1010D000EAE70020704770B504000D0042F6602179
:1010E000C0F200014EF20043CBF6FF53C01843425A
:1010F0005841C0B2B12240F68773C0F2000398474E
:10110000238CDB0718D40322238C1342FCD12378D1
:101110009B070BD523780222934323700132238C43
:101120001342FCD10222238C1342FCD101232370F1
:101130000322238C1342FCD10122238C1342FCD1C5
:10114000EB005B1B9B0042F64422C0F20002944677
:1011500063449A786270DA78A2701A79E270DB8858
:10116000238140F2FF72238C1342FCD1EB005B1B06
:101170009B0042F64422C0F20002944663441B895D
:10118000638140F2FF72238C1342FCD1EB005B1BA6
:101190009B0042F64422C0F20002944663449B7ACC
:1011A000237340F2FF72238C1342FCD1EB005B1BD4
:1011B0009B0042F64422C0F2000294466344DB7A6C
:1011C000637340F2FF72238C1342FCD1EB005B1B74
:1011D0009B0042F64422C0F20002944663449B897D
:1011E000E3814022238C1342FCD1EB005B1B9B006C
:1011F00042F64422C0F2000294466344DB89238213
:101200008022238C1342FCD1EB005B1B9B0042F637
:101210004422C0F20002944663441B8A638240F277
:101220000012238C1342FCD1EB005B1B9B0042F6A7
:101230004422C0F20002944663445B8AA38240F2D7
:101240000022238C1342FCD1EB005A1B920042F681
:101250004421C0F200018C466244127D22770022B4
:10126000A26246F22002C0F2800211688A06520F82
:10127000090240F2007001400A43A2855D1BAD00E7
:1012800065446B7823700322238C1342FCD1002029
:1012900070BD70B505000C0042F66021C0F200017F
:1012A000431E9841C0B2ED2240F68773C0F200039E
:1012B0009847200041F2D303C0F200039847010091
:1012C000200041F2D703C0F20003984700B170BD7F
:1012D0006C6141F60043C4F200239C4217D04EF2E9
:1012E0000013CEF20003842420221A51BFF34F8F43
:1012F000BFF36F8F40F284115A505A6020321A5156
:10130000BFF34F8FBFF36F8F5A505A60DFE740F241
:101310004803C2F200031D60E1E74269137802212D
:101320000B4313700131138C0B42FCD1704743699E
:1013300058898006800F0338431E9841013070475A
:101340004269137E02210B43137640F2FF71138C26
:101350000B42FCD1704710B540F24803C2F20003C3
:10136000186841F29303C0F20003984710BD10B50E
:1013700040F24803C2F20003186841F29303C0F23E
:101380000003984710BD10B545F20003C4F20013E6
:101390005A685A60002041F6E133C0F200039847D2
:1013A00041F69933C0F20003984741F6B133C0F2D9
:1013B0000003984741F68B33C0F20003984741F68B
:1013C000DF33C0F2000398471F2041F63D33C0F2DF
:1013D0000003984740F60003C4F200031A6908218D
:1013E0000A431A6141F2F133C0F20003984710BD7D
:1013F000F0B5CE46474680B546F20003C4F200136E
:101400001A8802218A431A801A8802318A431A8074
:101410004022995C01200143C9B2995440F6007200
:101420001A805A7B01218A430243D2B25A730022A6
:101430005A6140F26012C2F200025A6340F2E012B6
:10144000C2F200029A6342F67822C0F20002002142
:1014500046F20000C4F2001040F23F0C4024012785
:1014600040F26015C2F2000540F20009CBB26646B8
:101470008355035D984613789B093B409B01464684
:10148000A6433343035553684364138998460B01BD
:1014900046465E5340F26016C2F20006B046434430
:1014A0004E46DE6001310C320829DFD10B231F24A8
:1014B00001204EF20011CEF20001DAB21D060FD566
:1014C0000133102BF9D146F20003C4F200131A883D
:1014D00002210A431A8000200CBC90469946F0BDB8
:1014E0005D092240060096402A002035AD006E506E
:1014F000BFF34F8FBFF36F8F15006035AD006E5097
:1015000092005650DCE710B546F20003C4F2001317
:101510003F24185581B93AB946F20003C4F20013CA
:1015200002314C32995409E046F20003C4F2001330
:1015300002214D22995401E0012900D010BD3AB199
:1015400046F20003C4F2001301214D229954F5E73D
:1015500046F20003C4F200134C329954EEE7000146
:1015600040F26013C2F200039C4660448160002098
:101570007047000140F26013C2F200039C466044D1
:10158000416000207047090140F26013C2F200037D
:101590009C46614400016044C1600020704730B542
:1015A00040F26012C2F200020401A3189D68A35A1F
:1015B0009B059B0FA25A12050AD50C009C4064198A
:1015C000020140F26015C2F20005AC46624494602C
:1015D00040F26012C2F200020401A5186D68A45A1C
:1015E00062050AD50A009A405219030140F26014BC
:1015F000C2F20004A44663445A6089B2000140F27A
:101600006013C2F200039C4660444180002030BD5C
:1016100070B546F20003C4F200133F22985440F222
:101620006012C2F200020501AC5A01263443AC52EA
:1016300040241A5D02252A431A5541B146F20002A0
:10164000C4F200121169012383400B43136100208F
:1016500070BD0B004900C918890040F24C03C2F26A
:1016600000039C46614401600020704770B546F25B
:101670000002C4F20012118C07230B403F24155DB9
:10168000EDB25800C018800040F24C01C2F20001D7
:101690008C46604413554E21515CC9B21555CA079A
:1016A00002D48A070AD470BD46F20002C4F20012C6
:1016B0003E3C4E21545443689847F4E746F20002FA
:1016C000C4F2001202244E21545440F24C01C2F2E2
:1016D00000015A00D3189B005B589847E3E770B5A8
:1016E00046F20002C4F20012118C07230B403F2483
:1016F000155DEDB25800C018800040F24C01C2F2F6
:1017000000018C46604413554E21515CC9B21555F9
:10171000CA0702D48A070AD470BD46F20002C4F296
:1017200000123E3C4E21545443689847F4E746F279
:101730000002C4F2001202244E21545440F24C0123
:10174000C2F200015A00D3189B005B589847E3E7A8
:1017500070B546F20002C4F20012118C07230B4050
:101760003F24155DEDB25800C018800040F24C01D6
:10177000C2F200018C46604413554E21515CC9B23F
:101780001555CA0702D48A070AD470BD46F2000272
:10179000C4F200123E3C4E21545443689847F4E78B
:1017A00046F20002C4F2001202244E21545440F2C8
:1017B0004C01C2F200015A00D3189B005B589847B5
:1017C000E3E770B546F20002C4F20012118C072361
:1017D0000B403F24155DEDB25800C018800040F268
:1017E0004C01C2F200018C46604413554E21515CFD
:1017F000C9B21555CA0702D48A070AD470BD46F289
:101800000002C4F200123E3C4E21545443689847F3
:10181000F4E746F20002C4F2001202244E215454AE
:1018200040F24C01C2F200015A00D3189B005B58F1
:101830009847E3E770B546F20002C4F20012118C3B
:1018400007230B403F24155DEDB25800C0188000FF
:1018500040F24C01C2F200018C46604413554E2107
:10186000515CC9B21555CA0702D48A070AD470BDA3
:1018700046F20002C4F200123E3C4E21545443682A
:101880009847F4E746F20002C4F2001202244E2107
:10189000545440F24C01C2F200015A00D3189B008C
:1018A0005B589847E3E742F60023C4F200035B6805
:1018B000DB0734D442F60022C4F20002032153684D
:1018C0001942FCD142F60023C4F200031B789B07A7
:1018D00017D542F60023C4F200031A7802218A4386
:1018E0001A7042F60022C4F2000201315368194214
:1018F000FCD142F60022C4F20002022153681942D0
:10190000FCD142F60023C4F2000301221A7042F611
:101910000022C4F20002032153681942FCD142F6AE
:101920000022C4F20002012153681942FCD142F6A0
:101930000022C4F20002137810218B430B43137072
:1019400042F60022C4F200020D3953681942FCD15C
:1019500042F60023C4F2000320221A6400225A63D4
:101960009A609A611A63A022D203DA611A7802217E
:101970000A431A7042F60022C4F200020131536891
:101980001942FCD14EF20013CEF2000380229A508D
:10199000BFF34F8FBFF36F8F40F280115A501A6020
:1019A00040F2AC03C2F200031860002070471B280D
:1019B00002D001204042704741B942F60023C4F2F0
:1019C00000032022DA605A610020F4E742F6002387
:1019D000C4F2000320221A610020ECE7F0B5C646ED
:1019E00000B582B042F60023C4F200035A690192A6
:1019F000019A5A6142F6E021C0F2000140F2AC03C4
:101A0000C2F200031868431E9841C0B2F22240F6A9
:101A10008773C0F200039847019B002B55D0012328
:101A20005B42984642F6D825C0F2000541E0013AF3
:101A3000D1B28F420CD8CB195B10DAB20340DB0075
:101A40005B5DA34208D09C42F1DD0132D7B2F0E7E2
:101A50004346013309D001E040F21B0840F2AC03D9
:101A6000C2F200031B6840469847019B3200A24027
:101A700093430193019842F6A903C0F200039847EB
:101A8000013844B2631C0AD0052C05D0052300227E
:101A900000273100FF20D6E740F21B08DEE742F6C0
:101AA0000023C4F200035A690192019A5A61019B12
:101AB0005BB1019842F6A903C0F2000398470138D0
:101AC00044B20126631CDFD1E9E702B004BC9046B2
:101AD000F0BD70B540F20023C4F20023002240F2B2
:101AE000E0115A5008395A50012342F6F821C0F249
:101AF000000108E040F22030C4F200201818027003
:101B00000133172B03D05A5C002AF3D1F8E7163BB8
:101B100040F20022C4F200224CF20C2625250024BB
:101B20002420FF2104E01662545511540133DBB226
:101B3000012BF8D0072BF9D9002070BDC30710D5B1
:101B400041F60043C4F2000342F20512C0F2010262
:101B50001A6241F60042C4F200027D215368194224
:101B6000FCD1830710D541F60043C4F2000342F2D2
:101B70000312C0F201025A6241F60042C4F20002AE
:101B80007D2153681942FCD1704740F60003C4F22E
:101B9000000301221A71704741F20043C4F20003AE
:101BA000DA6941F600710A40DA6101221A7470475D
:101BB00041F20003C4F2000342221A7641F200020D
:101BC000C4F20002102113691942FCD041F2000353
:101BD000C4F200031A7E80210A431A7670477047C8
:101BE00040F20043C4F200039B7803221340984262
:101BF00012D040F20042C4F20002FF2393719378A6
:101C000003218B4308401843907040F20042C4F215
:101C100000029379002BFCD0704742F20042C4F2DC
:101C20000002012113691942FCD142F20042C4F2C0
:101C3000000248F2030113691942FCD142F2004349
:101C4000C4F200031B889B0718D542F20043C4F27C
:101C500000031A8802218A431A8042F20042C4F229
:101C6000000248F2030113691942FCD142F200421A
:101C7000C4F20002022113691942FCD142F200436E
:101C8000C4F200031A8801210A431A8042F200427A
:101C9000C4F2000213691942FCD142F20042C4F2BC
:101CA0000002012113691942FCD142F20043C4F23F
:101CB000000380221A8042F20042C4F2000248F27D
:101CC000030113691942FCD142F20043C4F200033C
:101CD00040F200125A6040F6CC421A6242F20042D0
:101CE000C4F20002202113691942FCD142F20042E1
:101CF000C4F20002138802218B430B43138042F28B
:101D00000042C4F2000248F2030113691942FCD1F7
:101D10000020704730B585B001AA42F61033C0F2FA
:101D2000000332CB32C20300019A82420CD0029AE5
:101D3000824207D00020039A9A4201D005B030BDFC
:101D4000023002E0012000E00020C0B2F6E7C369E3
:101D5000DB0709D403680222134303600132C3691D
:101D60001A42FCD10020704704204042FBE70000EB
:101D700010B5040041F61553C0F20003984701283E
:101D80000BD042F63431C0F2000140F2472200206D
:101D900040F68773C0F200039847E369DB0718D465
:101DA0000322E3691A42FCD123689B070BD5236801
:101DB0000222934323600132E3691A42FCD10222DA
:101DC000E3691A42FCD1052323600322E3691A4226
:101DD000FCD10122E3691A42FCD10423C4F21003AE
:101DE00023600322E3691A42FCD1C0239B02636093
:101DF0000F22E3691A42FCD10223C0F27003A360F0
:101E0000034BA3810023A3733022A354002010BDF1
:101E10002BF6FFFF70B505000C0042F63431C0F21E
:101E20000001431E9841C0B2BB2240F68773C0F246
:101E3000000398472C60200041F67153C0F2000364
:101E4000984770BD036889B2198570470368188D7B
:101E5000C0B270470368187E0123184070470368BA
:101E6000187E8007C00F70470368187E4007C00FB8
:101E7000704770B505000C00080041F61553C0F21C
:101E80000003984790B1002D68D042F63431C0F27B
:101E90000001601E8441E0B240F6361240F68773BE
:101EA000C0F2000398470D20404256E0002D64D157
:101EB00042F63431C0F2000140F63612002040F6FE
:101EC0008773C0F200039847E369DB0718D4032245
:101ED000E3691A42FCD123689B070BD523680222D1
:101EE000934323600132E3691A42FCD10222E36981
:101EF0001A42FCD10D2323600322E3691A42FCD16C
:101F00000122E3691A42FCD12C6042F63431C0F25E
:101F100000012000431E9841C0B240F6001240F676
:101F20008773C0F2000398470C23C0F201032360BB
:101F30000322E3691A42FCD180239B0263600722DB
:101F4000E3691A42FCD10123237300213022A154FA
:101F50002B71FF33FF33EB80002070BD42F634312C
:101F6000C0F2000140F63612002040F68773C0F23E
:101F7000000398470D204042EFE742F63431C0F2AB
:101F800000012000431E9841C0B240F6361240F6D0
:101F90008773C0F20003984796E710B50400A8B114
:101FA0000068431E9841C0B242F63431C0F20001CD
:101FB00040F6951240F68773C0F2000398472068F8
:101FC00041F64F53C0F20003984710BD0020EBE7E5
:101FD000F0B5DE4657464E464546E0B583B08146ED
:101FE0000E0004680B6898464D6803790193E8B1C8
:101FF0002000431E9841C0B242F63431C0F20001C5
:1020000040F69A2240F68773C0F200039847E369CE
:102010005B0740D10323E06918400028FBD1236807
:102020009B073BD5020040F2010C09E00020E3E7EA
:10203000013501325BB2002B16DBB368834227D92E
:10204000237EDBB2042119422BD0A76A002DF0D0E9
:102050002F7001990129EBD93F0A6F700235E8E72B
:1020600040F2010BD84436E001235B4263838133A5
:102070002376132040420322237E1342FCD0032305
:10208000237603B03CBC90469946A246AB46F0BDD1
:102090009342D5D8EFE704204042F2E714204042B3
:1020A000EFE79042C6D867461F42C3D04F46FF882D
:1020B000BA4647467FB13F78BA4601990129CFD940
:1020C00047467F783F02BB46574659460F43BA46BC
:1020D00040F2020BD84401305746A762AAE710B578
:1020E0004FF2000CCBF6FF5C6044800AC0B268B1CE
:1020F00042F66831C0F2000140F23C12002040F686
:102100008773C0F2000398470120404210BD70B5AC
:1021100006000C00080042F2DF03C0F200039847FB
:102120000500F46042F66831C0F200018D22012002
:1021300040F68773C0F2000398472369DB0718D481
:10214000032223691A42FCD123689B070BD523681D
:10215000022293432360013223691A42FCD10222F6
:1021600023691A42FCD101232360032223691A4206
:10217000FCD1012223691A42FCD16B005B19DB0000
:1021800042F65032C0F2000294466344596821601E
:10219000032223691A42FCD16B005B19DB0042F673
:1021A0005032C0F20002944663449A7AE2731B896B
:1021B000E380012323730B330B40082B65D0002BE6
:1021C00000D082E06B005B19DB0042F65032C0F2B7
:1021D0000002944663441B8AA383C02223691A42E7
:1021E000FCD10023E383C02223691A42FCD16B0097
:1021F0005B19DB0042F65032C0F2000294466344A1
:102200009B896383202223691A42FCD101236372D4
:1022100041F20003C4F200239C4200D17CE06B0039
:102220005B19DB0042F65032C0F200029446634470
:1022300001229A56002A26DB53091F211140012250
:102240008A404EF20011CEF2000120339B005A501A
:10225000BFF34F8FBFF36F8F6B005D19ED006544C7
:102260000122AA56002A0EDB53091F211140012228
:102270008A404EF20011CEF200011800603080005A
:1022800042509B005A50002070BD6B005B19DB0070
:1022900063441B69E361C02223691A42FCD1002315
:1022A0002362C02223691A42FCD16B005B19DB0058
:1022B00042F65032C0F2000294466344DB68A361E8
:1022C000202223691A42FCD1A0E7042B9ED16B0087
:1022D0005B19DB0042F65032C0F2000294466344C0
:1022E0001B7C2377C02223691A42FCD10023637729
:1022F000C02223691A42FCD16B005B19DB0042F655
:102300005032C0F20002944663441B7BE3762022E5
:1023100023691A42FCD179E740F2B003C2F200030C
:102320001E607CE70020704710B540F2B003C2F297
:1023300000031868C3689A7AD20700D410BD01223E
:102340009A7203689847F9E770B505000C00E8B188
:102350000800431E9841C0B242F67C31C0F2000131
:102360003D2240F68773C0F20003984723789B070D
:102370000ED4237840229343237023793F3A93432A
:1023800023712C6020232B71002070BD0020E3E717
:1023900011204042F9E710B5040000282BD0006856
:1023A000431E9841C0B242F69431C0F2000150225F
:1023B00040F68773C0F20003984723681E219A688D
:1023C0001142FCD11A78D209BAB91E219A68114279
:1023D000FCD11A78920713D41A7804218A431A7010
:1023E0001A319A681142FCD1226853780F218B432D
:1023F0005370002010BD0020D5E711204042F9E7BE
:1024000011204042F6E740F2B403C2F20003012279
:102410001A70704740F20043C4F2000304225A705D
:1024200040F20042C4F20002072153780B40042B13
:10243000FBD1BFF34F8F30BF7047000042F2004323
:10244000C4F200031A8802218A431A8042F2004231
:10245000C4F2000248F2030113691942FCD142F2AE
:102460000043C4F2000301221A8042F20042C4F287
:1024700000021369DB07FCD442F20043C4F20003FC
:1024800080221A8042F20042C4F2000248F20301A4
:1024900013691942FCD142F20043C4F2000340F632
:1024A000CC421A6242F20042C4F2000220211369B7
:1024B0001942FCD142F20043C4F200035A680649B3
:1024C0000A405A6040F200125A814EF20013CEF2D6
:1024D0000003FC3A1A607047FFFEFFFF40F2B403AE
:1024E000C2F2000301225A70704710B542F2004355
:1024F000C4F2000340F200129A8140F2CC00C2F212
:10250000000040F61123C0F20003984710BD10B53B
:1025100042F20741C0F200011B2040F6B123C0F295
:102520000003984710BD10B540F26022C2F20002CD
:1025300011889388CB181189C91893895918138A5F
:102540005B180522B3FBF2F340F20001C2F2000176
:102550004B701B0A8B7040F2B403C2F20003586840
:10256000013A40F60D33C0F20003984710BD41F622
:102570000003C4F200039A6940F200110A439A6111
:102580009A69F4398A4308390A439A6141F600028C
:10259000C4F20002FC31D3681942FCD040F200437F
:1025A000C4F200031A8901218A431A81DA780321CF
:1025B0000A43DA70704700B583B041F62441C4F293
:1025C0000021002041F27353C0F20003984740F20B
:1025D0006021C2F200010A31002041F25F53C0F2D3
:1025E000000398470A21002041F29F53C0F20003E4
:1025F0009847002101A841F25363C0F200039847B5
:1026000042F2DD43C0F20003019A13600021002072
:1026100041F28753C0F200039847012200210020B5
:1026200041F20753C0F2000398470021002041F215
:102630001163C0F20003984746F20002C4F2001290
:102640004F21535C9B07FCD403B000BDF0B5C646D8
:1026500000B540F28123C0F20003984742F26F5365
:10266000C0F20003984742F20F53C0F200039847AC
:1026700040F2B401C2F20001043140F21414C2F27B
:102680000004200040F6C743C0F200039847200032
:1026900040F6D133C0F20003984742F2B753C0F27C
:1026A0000003984740F2B404C2F20004002546E05B
:1026B000A5604DE042F23D43C0F20003984741F669
:1026C0000043C4F20023DA7802218A43DA7040F230
:1026D000CC00C2F20000290040F6CB13C0F2000388
:1026E0009847657042F20043C4F200031A88022141
:1026F0000A431A8042F20042C4F2000248F2030187
:1027000013691942FCD16378A3B940F20042C4F2C4
:1027100000021026022007211389B3431381507051
:1027200053780B40022BFBD1BFF34F8F30BF637840
:10273000002BF1D042F22753C0F2000398472378D0
:1027400033B12570A368032BB2D0A3680133A36013
:10275000A368012B35D0002BACD0022B74D0032BF7
:10276000EDD140F27533C0F20003984741F61B43A8
:10277000C0F20003984740F2CC00C2F200002900EA
:1027800040F6CB13C0F2000398476570637893B9A5
:1027900040F20046C4F2000640F2100842F215472B
:1027A000C0F200073389424613439BB23381B847D6
:1027B0006378002BF6D042F22753C0F2000398470B
:1027C000BDE742F23D43C0F20003984741F60043A3
:1027D000C4F20023DA7802218A43DA7040F2CC0096
:1027E000C2F20000290040F6CB13C0F20003984764
:1027F000657042F20043C4F200031A8802210A43C2
:102800001A8042F20042C4F2000248F20301136946
:102810001942FCD163788BB940F20046C4F200063D
:1028200040F2100842F21547C0F2000733894246D1
:1028300093433381B8476378002BF7D042F2275394
:10284000C0F2000398477AE740F27533C0F2000304
:10285000984741F61B43C0F20003984740F2CC0072
:10286000C2F20000290040F6CB13C0F200039847E3
:10287000657063788BB940F20046C4F2000640F2FE
:10288000100842F21547C0F20007338942469343CD
:102890003381B8476378002BF7D042F22753C0F258
:1028A000000398474BE7000010B5002310B100F07B
:1028B00003F8431C180010BD414208401C210123AD
:1028C0001B04984201D3000C10391B0A984201D313
:1028D000000A08391B09984201D30009043902A2F1
:1028E000105C401A7047C0461B1C1D1D1E1E1E1E7C
:1028F0001F1F1F1F1F1F1F1F70B500250E4B0F4CE2
:10290000E41AA410A54209D1002500F04FF90C4C9F
:102910000C4BE41AA410A54207D170BD064AAB00C7
:102920009B181B6898470135ECE7064AAB009B18DB
:102930001B6898470135EEE7B82B0000B82B000064
:10294000BC2B0000B82B00002E2E2F68616C2F6965
:102950006E636C7564652F68616C5F7764742E6854
:10296000000000002E2E2F68616C2F7372632F6899
:10297000616C5F6164635F6173796E632E630000F5
:102980002E2E2F68616C2F7372632F68616C5F69E4
:102990006F2E63002E2E2F68616C2F7372632F6869
:1029A000616C5F72616E645F73796E632E630000A9
:1029B0002E2E2F68616C2F7372632F68616C5F73AA
:1029C00070695F6D5F73796E632E63002E2E2F68C2
:1029D000616C2F7372632F68616C5F74696D6572CF
:1029E0002E6300002E2E2F68616C2F7372632F6888
:1029F000616C5F75736172745F73796E632E6300CF
:102A00002E2E2F68616C2F7574696C732F7372632F
:102A10002F7574696C735F6C6973742E63000000AA
:102A20002E2E2F68616C2F7574696C732F7372630F
:102A30002F7574696C735F72696E6762756666651F
:102A4000722E630000C000000200001800000006A3
:102A50000000000000000000000000000000000076
:102A60002E2E2F68706C2F6164632F68706C5F610D
:102A700064632E6300000000420000000013800029
:102A80000809000000000000000000000000000035
:102A90000000000000000000000000000000000036
:102AA0000000000000000000000000000000000026
:102AB0000000000000000000000000000000000016
:102AC0000000000000000000000000000000000006
:102AD0000000000000000000050000001B000000D6
:102AE0002E2E2F68706C2F6569632F68706C5F6580
:102AF00069632E6300000000000000000000000079
:102B000000000000000001000000000000000000C4
:102B10000004004200080042000C004200000000D7
:102B200000000000000000000000000000000000A5
:102B3000000000002E2E2F68706C2F736572636F7B
:102B40006D2F68706C5F736572636F6D2E6300002C
:102B50000022000008030000000000000000000048
:102B6000F4010000000000002E2E2F68706C2F74FE
:102B7000632F68706C5F74632E6300002E2E2F68C5
:102B8000706C2F74726E672F68706C5F74726E67F2
:102B90002E6300002E2E2F68706C2F7764742F68C0
:102BA000706C5F7764742E6300000000F8B5C04657
:102BB000F8BC08BC9E46704741020000F8B5C0460C
:0C2BC000F8BC08BC9E46704715020000DF
:082BCC00030000FC0100000001
:10FB00007FE97FE9F0F70FBB7FE97FE9F0F7F2BA11
:10FB100000000000000000000000000000000000E5
:0200000400807A
:104000003F438FB0BB180000FF20087F0100000075
:1040100000000000000000000000000000000000A0
:00000001FF
